:0200000470107A
:1004000000002034F94110701D4110701F41107020
:100410002141107023411070254110702741107048
:1004200000000000000000000000000029411070E2
:100430002B4110700000000045081070E907107093
:100440005542107000000000554210705542107067
:100450005542107055421070554210705542107040
:100460005542107000000000554210705542107047
:100470005542107055421070554210700000000037
:100480005542107000000000554210705542107027
:100490005542107055421070554210705542107000
:1004A00055421070554210705542107055421070F0
:1004B00055421070554210705542107055421070E0
:1004C00055421070554210705542107055421070D0
:1004D00000000000000000005542107055421070EE
:1004E00055421070000000000000000000000000F5
:1004F0000000000000000000554210703B411070E9
:100500002D411070000000000000000000000000FD
:10051000554210701DE61070554210705542107013
:10052000554210705542107055421070554210706F
:10053000554210705542107055421070554210705F
:10054000554210705542107055421070554210704F
:10055000554210705542107055421070554210703F
:10074000000000005542107055421070000000007B
:1007500010B5054C237833B9044B13B10448AFF3FB
:1007600000800123237010BDC0420034000000004F
:10077000DCB0117008B5034B1BB103490348AFF35C
:10078000008008BD00000000C4420034DCB01170DD
:1007900072B64FF0E0201B49C0F8081D1A480168E6
:1007A00041F00101016019481649096801604FF0E4
:1007B000E020174941614FF0070101614FF000014E
:1007C000C0F8181D4FF07F41C0F81C1D1149C0F83A
:1007D000201D7047FFF7FEBF01B512F0A3FA12F01B
:1007E000FFFABDE80140704701B512F09BFA00F036
:1007F000A3F812F0F5FABDE801407047FFF7FEBF1D
:10080000FFF7FEBF00041070001000E04CA500349C
:10081000FF340C000000FF404FF00000324A10602F
:10082000EFF3148020F0040080F3148862B64FF0D8
:1008300080504FF0E021C1F8040DBFF34F8FBFF39C
:100840006F8FFEE772B601B512F028FABDE80140DD
:1008500062B62648264A4FF00003016891B1036052
:10086000EFF3098C2CE9F00F1EF0100F01D12CEDE5
:10087000108A204C4CF804EDC1F808C025680DB171
:100880008D61236072B61168F1B1016062B64F6884
:10089000184C8D6907F101074F60256003B412F011
:1008A000D3F903BCD1F80CC08CF30B88D1F808C085
:1008B0005CF804EB1EF0100F01D1BCEC108ABCE810
:1008C000F00F8CF30988704772B61168016009B99E
:1008D00062B6F9E74FF000674FF0E028C8F8047DF2
:1008E00062B6D4E770470000ACA4003448A50034D9
:1008F00044A5003450A50034026922F00702A2F199
:1009000044026FF0020313604FF0000353609360E2
:10091000D360136153619361D36113625362936235
:10092000D362136353634FF0FF339363D1634FF08C
:1009300080731364826070472249086800F10100E7
:100940000860214B1A683AB1A2F101021A601AB983
:100950001E4B4FF0010018601D490868026822B163
:100960001C4B4FF001021A6008E000F104001A4B22
:100970001A68904201D1194B18680860134B1A6825
:1009800012B914490868C8B101B51249086808B11C
:1009900011F0F6FD0D4B1A6872B111F099FD104877
:1009A000016849B90F4801680F4A13680F484FF0B2
:1009B0008052994200D00260BDE80140BFF34F8FE2
:1009C00070470000C0AA003450A50034BCAA00340F
:1009D00030AA00342CAA003434AA003438AA0034D7
:1009E000ACA4003448A5003444A5003404ED00E074
:1009F00090EDAD6A30B52DED108B90EDA87BB5EE86
:100A0000C06A87B08DED027B002390EDA47BF1EEF0
:100A100010FA91ED015A91ED004A91ED02FB91ED32
:100A200004EB044690ED123B90EDAACB90ED16AB93
:100A30008DED047B90EDA6BB80F8603009DCD0F82A
:100A4000C832D14898474FF0FF3007B0BDEC108B4B
:100A500030BDB8EE455B9FEDBE7BB8EE444B25EE56
:100A6000077BB4EEC47BF1EE10FA0FDD90ED1C7B3A
:100A70009FEDB92B37EE022B9FEDB97BB4EEC72B60
:100A8000F1EE10FA37FE027B80ED1C7B9FEDB67B0A
:100A900025EE075BB4EEC45BF1EE10FA10D594EDD1
:100AA0001C7B9FEDAD5B37EE457B9FEDB15BB4EEFC
:100AB000C57BF1EE10FA58BFB0EE475B84ED1C5BCE
:100AC00083EE0C8BBCEEC88BB8EE488B94F850507C
:100AD00028EE0C8B012DB7EEC66A40F0AC809FED7E
:100AE000A67B3FEE4E5B85EE07DB3FEE0E5B85EEB1
:100AF000079BB0EECD7BB4EEC76BF1EE10FAB0EE13
:100B0000C95B1FDBB4EEC56BF1EE10FA1ADB0023F4
:100B100084F8783094ED1A7BB5EEC07BF1EE10FAD4
:100B200040F33481012384F860309DED027BB4EE04
:100B3000C7ABF1EE10FA40F13C819DED047B3AEE3B
:100B400007BB28E1B4EEC56BF1EE10FA0CD589EEC7
:100B50000D5B94EDAE6AB0EEC55BB7EEC66AB4EE5F
:100B6000C65BF1EE10FAD5DAF7EECA0BB7EEC70B9B
:100B700019F0EAFAB2EE047BB7EEC00A20EE070BDA
:100B8000FCEEC87BB0EECE6BCDED017AB0EECF7B44
:100B9000B4EEC67BF1EE10FA62DCB5EEC0EBF1EE1E
:100BA00010FA62D538EE000B94ED3C7BB4EEC07BBE
:100BB000F1EE10FA03D5B0EE4BABB0EE470B94ED6F
:100BC0003A7BB4EEC07BF1EE10FA03DDB0EE4BAB36
:100BD000B0EE470B80EE0C8BBCEEC88BB8EE488BAA
:100BE000012D2CEE088B16D1B4F8E030022B3FD843
:100BF000DDED017AB8EE677B04EBC30282ED207B6A
:100C000082ED268B04EB0312013382ED2CDB82EDA7
:100C10002E9BA4F8E03094F87830012B07D0FCEE3E
:100C2000C87B17EE903A019A93423FF473AF0123C9
:100C300084F860306EE7B0EECF7BB0EECE5BB4EE02
:100C4000475BF1EE10FA35FE077BB4EEC67BF1EEA2
:100C500010FA7FF65FAF9FED4A9BB0EE49DB83E76A
:100C6000B5EEC0FBF1EE10FA9CD538EE400B9BE7D9
:100C700094ED2A7B94EDAF6A38EE477BB7EEC66AF7
:100C8000B0EEC77BB4EEC67BF1EE10FA56DB94ED06
:100C9000287B38EE477BB0EEC77BB4EEC76BF1EE36
:100CA00010FA4BDD94ED320B94ED307B39EE400BB6
:100CB0003DEE477B20EE000BA7EE070B18F028FC5B
:100CC00094EDB07AB7EEC77AB4EEC70BF1EE10FA36
:100CD00034D5DDED017AB8EE678B84F8785094F85E
:100CE0007830002B97D1102204F1880104F18000A4
:100CF00016F012FB102204F1A00104F1980016F086
:100D00000BFBD4E93023DDED017AB8EE677BC4E953
:100D10002C23D4E9322384ED247BC4E92E23D4E9A7
:100D2000342384ED2A8BC4E93023D4E9362384EDBF
:100D300034DB84ED369BC4E932236CE794F87830D9
:100D4000012B04BF002384F87830C8E7AFF300809C
:100D50009A9999999999A93F7B14AE47E17A843F72
:100D6000343333333333C33F333333333333C33F1A
:100D7000111111111111B13FCD3B7F669EA0F63FBD
:100D80000000000000000000586A1F7094F86030F6
:100D9000002B7FF4CAAE88EE0C7BBCEEC77BB8EEAE
:100DA000477B27EE0C7B84ED16BB84ED127B012084
:100DB0004BE69DED02BBEEE790ED1A6BB5EEC06B16
:100DC00090ED124BF1EE10FA90EDAA5BB0EE467B7F
:100DD000DFBF84EE057BBCEEC77BB8EE477B27EE1A
:100DE000057BB7EEC77B90ED3C5BB7EEC74AB4EE30
:100DF000C54BF1EE10FAC8BFB7EEC57B90ED3A5B7C
:100E0000B7EEC74AB4EEC54BF1EE10FA48BFB7EEE5
:100E1000C57BB7EEC75AD0F8743230B580ED125B9F
:100E200093ED005AD0EDAC7AB4EEC75AF1EE675AA2
:100E3000F1EE10FA4FF00001B0F8F83075FEA77A25
:100E4000013B8AB2934205D8442202FB030303F517
:100E5000907311E000EB8204D4ED445A77EEA55A6A
:100E6000F4EEC75AF1EE10FA01F10101E9DB442377
:100E700003FB020202F59073B5EEC06BF1EE10FABF
:100E8000C0F8743205DC93ED007AB7EEC77A80EDD6
:100E9000127B5A6803F1380142609A6803F1240416
:100EA0008260DA68C2601A69026100F138025D6925
:100EB0000C334561DD680C30C5601D69A3420561D6
:100EC00051F8045B42F8045BF1D1012030BD10B54C
:100ED000044690B070B10023084C40212370C4F840
:100EE000C802074B6846074A16F0D2F86846D4F89D
:100EF000C8329847204610B010BD00BFE042003411
:100F0000D8A01F70986A1F70002814BF01204FF0EE
:100F1000FF30704780ED000A30B50C6844604C68C3
:100F200084608C68C460C96802F12404016100F126
:100F3000380115680C32456152F8085C0C30C56008
:100F400052F8045CA242056153F8045B41F8045B6B
:100F5000EFD130BD2DE9F04F2DED068B0E46B0EEF2
:100F6000409BB0EE418B1D460446C7B0002800F000
:100F70008F819FEDCBAB80ED12AB0020CE494FF0BF
:100F80000008C4E91601C4E9A601C4E9AA01CB49D5
:100F9000DFF85C93C4F8B0124FF07E51C4F8B4127D
:100FA0004FF07C51C4E91A890FF2FC29D9E9008974
:100FB000C4E91C89C4E9A4894FF00008C4F8B81238
:100FC000BF49DFF83093C4F8BC124FF07F510023C3
:100FD000C4E9A88901274FF00008C4F8C012711EA7
:100FE000DFF8149388B20428C4E9A0890FF2C0295D
:100FF000D9E9008984F86030C4E9A289A4F8E03016
:1010000084F87830A4F8787214D905234FF48071ED
:10101000AC4A06A816F03CF8D4F8C83206A898479F
:1010200084F85070204647B0BDEC068BBDE8F04F09
:10103000FFF7C2BE95ED007AB7EEC77AB4EEC70BE4
:10104000F1EE10FA12DDD4F8C8329F48984795EDBA
:10105000007AB7EEC77A8DED009B8DED027B9B4A3F
:101060004FF4807106A816F013F8D5E74FF0440C42
:101070000CFB065818ED117AB7EEC77AB4EEC71B11
:10108000F1EE10FA41D5D4F8C8329148984798ED5E
:10109000007AB7EEC77A8DED008B8DED027B8D4A1D
:1010A000DEE70CFB08F705EB070944372F4499ED01
:1010B000007AD7ED007AB4EEE77AF1EE10FA08F193
:1010C000010A00F1010021DBD4F8C83282489847B8
:1010D00097ED007AB7EEC77A8DED047BCDF808A0C6
:1010E00099ED007AB7EEC77A43468DED007B7B4AD7
:1010F0004FF4807106A815F0CBFFD4F8C83206A8CB
:101100009847012384F850308CE718461FFA80F87E
:101110004145C6D800234FF0440CB01E9FB2B942DF
:1011200039D884ED3A9B84ED3C8B0020A4F8F8601C
:1011300083B2994200F1010000F28B800027B8468B
:1011400004F1FC0A04F5907905EB070B09EB0700A5
:101150004422594616F091FBDBF8003008F10108F3
:101160004AF8043B1FFA88F39E4207F14407EBD884
:10117000731E9BB2002E03F1010314BF1A46012215
:10118000C4F8749204F5B271013A6AD1012384F86B
:101190005030237046E702EB8709B842D9ED007A58
:1011A0004FEA870807F1010A1ED908F104089044A4
:1011B00098ED007AB4EEE77AF1EE10FA14D8D4F88C
:1011C000C8324748984798ED007AB7EEC77A8DED58
:1011D000047BCDF808A099ED007AB7EEC77A3B46BC
:1011E0008DED007B3F4A83E70CFB07F805EB080A0F
:1011F0009AED007AB4EEE77AF1EE10FA08F14408BD
:10120000A84408DA98ED007AB4EEE77AF1EE10FA25
:1012100003F1010382D8D4F8C8323348984798EDD7
:10122000007AB7EEC77A8DED047B9AED007AB7EEBF
:10123000C77A8DED027B99ED007AB7EEC77A3B460F
:101240008DED007B4FF48071284A06A815F020FF31
:1012500053E702EB83073F6804EB8303C3F8107185
:1012600066E7D4F8743291ED006A93ED007AB7EE38
:10127000C66AB7EEC77A36EE4A6B37EE4A7BB4EEF3
:10128000C76BF1EE10FA48BFC4F8741244317BE723
:101290004FF0FF3047B0BDEC068BBDE8F08F00BFCC
:1012A000000000000088B3409A9999999999B93F34
:1012B0000000000000A06E400000F03F0000484227
:1012C00000002F43A86A1F70EC6A1F70736B1F70B9
:1012D000D16B1F70596C1F70B66C1F701A6D1F7028
:1012E000726D1F70E16D1F704B6E1F70A26E1F70CC
:1012F0000000F0BF000008400000244030B5054663
:1013000014468DB052B9D0F8C8321D489847D5F868
:10131000C8321C48984720460DB030BD93ED042BD1
:1013200093ED021B93ED000B0AAA08A906A800F092
:101330002FF8DDE90823CDE90223DDE90A23CDE911
:101340000423012398420446CDE90033DFD16946E6
:101350002846FFF74DFB0128044603D0D5F8C832D4
:101360000948D7E795F86030012BD4D12846FFF71C
:1013700023FD01280446CED0D5F8C8320348C9E77A
:10138000286F1F70896F1F70B26F1F70E66F1F701C
:10139000B5EEC00BF1EE10FA1FB509D4B5EEC01BC7
:1013A000F1EE10FA04D4B5EEC02BF1EE10FA0DD523
:1013B0008DED022B8DED001B53EC102B444815F0E6
:1013C00043FD4FF0FF3005B05DF804FB9FED327B2D
:1013D000B4EEC70BF1EE10FA09DCB4EEC71BF1EE68
:1013E00010FA04DCB4EEC72BF1EE10FA07DD8DED38
:1013F000022B8DED001B53EC102B3648DFE728B194
:1014000089B1B2B93449354B084607E071B1334967
:101410003148002A304A314B18BF13460246304843
:1014200015F012FDCDE72C492C48F2E72B49084670
:10143000EFE79FED1B7B9FED1C6B21EE077BB3EE6F
:10144000005BA0EE067B9FED1A6BA2EE057BA7EE7C
:10145000065B9FED197B80ED005B27EE417BBBEEC9
:101460000A5BA0EE057B9FED165BA2EE057B27EEE7
:10147000067B81ED007B9FED147B27EE411BB2EED6
:10148000047BA0EE051BA2EE471B21EE061B0120EC
:1014900082ED001B97E700BF0000000000E06F40F6
:1014A0000000000000A063400000000000804740F2
:1014B000000000000000703F000000000080554068
:1014C0000000000000005C40000000000080594067
:1014D0001B701F7059701F700CB811700AB8117012
:1014E00099701F700000000010B5044690B060B104
:1014F0000023074C40212370A065064B6846064A2E
:1015000015F0C6FD6846A36D9847204610B010BD83
:10151000B0450034DEA01F70E3701F70002814BFB8
:1015200001204FF0FF30704738220A23C0E904231E
:1015300064232D227821C0E9063240F2DC5230B516
:10154000C0E9081241F2707442F6E062C0E90A4252
:101550000BA5D5E9004505224FF0000C026548F2C5
:10156000E802C0E910C20122C0E90C4506A5D5E990
:101570000045C0E91223C0E90E4530BDAFF300803D
:1015800000000040E17A943F000000E04D62703FAF
:1015900010B5044620B1FFF7C7FF0120207010BD31
:1015A0004FF0FF30FBE72DE9F0410E4604460028DE
:1015B00000F0E180017801290BD102210170A56CB6
:1015C000C4E90126B54208D2616C914205D9A560F3
:1015D0004CE00229F3D0002049E0D4F810C0B6EE68
:1015E000005B07EE90CAB8EE676A07EE903AB8EE75
:1015F000E77BB7EEC66A37EE057B86EE070B216DFB
:10160000B7EEC00B8B424BD2F0EE007AB4EEE70A95
:10161000F1EE10FA44D4616CB7EE007A8A4220D21F
:10162000012A134638BF012307EE903AF8EEE77A15
:1016300067EE807AFDEEE77A17EE903A8B42C1BFF3
:1016400007EE901AB8EEE76A07EE902AF8EE676A9E
:10165000C3BFC6EE267A0B4680EE270AB0EE470AD5
:101660006360B4EEC70AF1EE10FA02DC0120BDE8B7
:10167000F081B7EEC00A17F017FFB3EE047B20EE3F
:10168000070B9FED3F7B20EE070BBDEEC00B10EE6E
:10169000103AE26C33449342D4BFA360A260E5E702
:1016A000ACEB0307E16987EAE770A0EBE7708842DB
:1016B00047D8606AD4F814E0A1690EEB0C0898458D
:1016C00007FB01F143D207EE900A9FED2F7AF8EE67
:1016D000E77A67EE877A07EE101AF1EE676AB8EEDE
:1016E000C77AB4EEE67AF1EE10FA04D5FDEEE77AA9
:1016F00017EE903A59420029B8D0B54232D1606C09
:10170000904201D800292DDA02FB077707EE902AD4
:1017100006EE907A0029B8EEE77BB8EEE66B1EDAAB
:1017200094ED0E5BA5EE067BBDEEC77B17EE102A8F
:10173000236C9A42B8BF1A468242D4BF626060608E
:1017400094E7216A88422CBFE06AA06AB2E7ACEB5A
:101750000E0C9C458ADD8142A8BF0146CBE794ED83
:101760000C5BDFE70E44B5423FF731AFE56CB542A5
:10177000A8BF35462BE74FF0FF3078E7AFF3008086
:101780000000000000408F409A99593F034613F82B
:10179000012B002AFBD1181A0138704781F0004153
:1017A00002E000BF83F0004330B54FEA41044FEA46
:1017B000430594EA050F08BF90EA020F1FBF54EAE1
:1017C000000C55EA020C7FEA645C7FEA655C00F07D
:1017D000E2804FEA5454D4EB5555B8BF6D420CDD4E
:1017E0002C4480EA020281EA030382EA000083EAD1
:1017F000010180EA020281EA0303362D88BF30BD71
:1018000011F0004F4FEA01314FF4801C4CEA1131C6
:1018100002D0404261EB410113F0004F4FEA033325
:101820004CEA133302D0524263EB430394EA050FB0
:1018300000F0A780A4F10104D5F1200E0DDB02FA1F
:101840000EFC22FA05F2801841F1000103FA0EF2B3
:10185000801843FA05F359410EE0A5F120050EF179
:10186000200E012A03FA0EFC28BF4CF0020C43FAAA
:1018700005F3C01851EBE37101F0004507D54FF0B7
:10188000000EDCF1000C7EEB00006EEB0101B1F507
:10189000801F1BD3B1F5001F0CD349085FEA30004D
:1018A0004FEA3C0C04F101044FEA445212F5800F58
:1018B00080F09A80BCF1004F08BF5FEA500C50F1F5
:1018C000000041EB045141EA050130BD5FEA4C0CD8
:1018D000404141EB0101013C28BFB1F5801FE9D235
:1018E00091F0000F04BF01460020B1FA81F308BF58
:1018F0002033A3F10B03B3F120020CDA0C3208DD24
:1019000002F1140CC2F10C0201FA0CF021FA02F1FE
:101910000CE002F11402D8BFC2F1200C01FA02F16E
:1019200020FA0CFCDCBF41EA0C019040E41AA2BF93
:1019300001EB0451294330BD6FEA04041F3C1CDA5B
:101940000C340EDC04F11404C4F1200220FA04F07B
:1019500001FA02F340EA030021FA04F345EA030125
:1019600030BDC4F10C04C4F1200220FA02F001FAE7
:1019700004F340EA0300294630BD21FA04F0294669
:1019800030BD94F0000F83F4801306BF81F4801102
:101990000134013D4EE77FEA645C18BF7FEA655C75
:1019A00029D094EA050F08BF90EA020F05D054EA47
:1019B000000C04BF1946104630BD91EA030F1EBF4C
:1019C0000021002030BD5FEA545C05D14000494150
:1019D00028BF41F0004130BD14F580043CBF01F543
:1019E000801130BD01F0004545F0FE4141F4700129
:1019F0004FF0000030BD7FEA645C1ABF1946104604
:101A00007FEA655C1CBF0B46024650EA013406BF04
:101A100052EA033591EA030F41F4002130BD00BFC3
:101A200090F0000F04BF0021704730B54FF4806480
:101A300004F132044FF000054FF0000150E700BF01
:101A400090F0000F04BF0021704730B54FF4806460
:101A500004F1320410F0004548BF40424FF000014D
:101A60003EE700BF42004FEAE2014FEA31014FEA90
:101A700002701FBF12F07F4393F07F4F81F06051DF
:101A8000704732F07F4208BF704793F07F4F04BF2A
:101A900041F40021704730B54FF4607401F0004507
:101AA00021F000411CE700BF50EA010208BF704767
:101AB00030B54FF000050AE050EA010208BF704758
:101AC00030B511F0004502D5404261EB41014FF4C1
:101AD000806404F132045FEA915C3FF4D8AE4FF0C9
:101AE00003025FEADC0C18BF03325FEADC0C18BFAC
:101AF000033202EBDC02C2F1200300FA03FC20FAFD
:101B000002F001FA03FE40EA0E0021FA02F1144449
:101B1000BDE600BF7BB972B90029BEBF00204FF0FF
:101B2000004106E008BF00281CBF6FF000414FF0E5
:101B3000FF3000F0C9B9ADF1080C6DE904CE002901
:101B400009DB002B1ADB00F04DF8DDF804E0DDE9DD
:101B5000022304B07047404261EB4101002B1BDBC4
:101B600000F040F8DDF804E0DDE9022304B0404273
:101B700061EB4101524263EB43037047524263EB16
:101B8000430300F02FF8DDF804E0DDE9022304B0A0
:101B9000404261EB41017047524263EB430300F066
:101BA00021F8DDF804E0DDE9022304B0524263EBE2
:101BB0004303704753B94AB9002908BF00281CBF26
:101BC0004FF0FF314FF0FF3000F07EB9ADF1080C5F
:101BD0006DE904CE00F006F8DDF804E0DDE902234B
:101BE00004B070472DE9F04F099D0C46002B4DD1F4
:101BF0008A420F4684469646B2FA82F360D94BB1C8
:101C000002FA03FEC3F120029F4000FA03FC20FA0F
:101C100002F217434FEA1E461FFA8EF44FEA1C42A7
:101C2000B7FBF6F106FB117701FB04F042EA07422D
:101C3000904208D91EEB020201F1FF3702D2904216
:101C400000F22D813946121A1FFA8CFCB2FBF6F015
:101C500006FB102200FB04F44CEA024C644508D950
:101C60001EEB0C0C00F1FF3202D2644500F21A8127
:101C7000104640EA0140ACEB040C002125B12CFADF
:101C800003F30022C5E90032BDE8F08F8B4205D98D
:101C90000DB1C5E9000100210846F5E7B3FA83F16B
:101CA00000294DD1A342C0F0F280904280F0EF8035
:101CB000064623460846002DE6D0C5E90063E3E763
:101CC000002B40F0A2808A1A4FEA1E471FFA8EF6B8
:101CD0000121B2FBF7F407FB14204FEA1C4242EA51
:101CE000004206FB04F090420FD91EEB020204F101
:101CF000FF382CBF4FF001094FF00009904203D983
:101D0000B9F1000F00F0C8804446121A1FFA8CFC8B
:101D1000B2FBF7F007FB102200FB06F64CEA024C80
:101D2000664508D91EEB0C0C00F1FF3202D2664565
:101D300000F2BB801046ACEB060C40EA04409DE785
:101D4000C1F120068B4004FA01FE22FA06F720FAC0
:101D500006FCF4408A401F434EEA0C0300FA01FEE1
:101D60004FEA17484FEA13491FFA87FCB4FBF8F013
:101D700008FB104449EA044400FB0CF9A1450ED9C4
:101D80003C1900F1FF3A2CBF4FF0010B4FF0000B54
:101D9000A14503D9BBF1000F00F093805046A4EB9E
:101DA00009041FFA83F9B4FBF8F308FB134403FB9F
:101DB0000CFC49EA0444A44506D93C1903F1FF3858
:101DC00001D2A4457AD8434643EA0040A4EB0C0470
:101DD000A0FB02984445CC46434602D306D1CE45EB
:101DE00004D20138B9EB020C68EB07035DB1BEEB1E
:101DF0000C0264EB030404FA06F622FA01F3CC4069
:101E00001E43C5E9006400213EE702FA03FEC3F168
:101E1000200104FA03F200FA03FCCC404FEA1E470B
:101E200020FA01F11FFA8EF6B4FBF7F00A4307FB24
:101E30001044110C41EA044100FB06F48C420ED917
:101E40001EEB010100F1FF382CBF4FF001094FF0EC
:101E500000098C4202D9B9F1000F2CD04046091B71
:101E600092B2B1FBF7F407FB141142EA014204FB02
:101E700006F1914207D91EEB020204F1FF3801D2AC
:101E8000914215D84446521A44EA004121E7861A85
:101E900064EB030301200EE7023C724435E702398C
:101EA0007244D0E6F4440238E3E6F444023842E7F0
:101EB000023C7244E7E702387144D0E7023B3C44FD
:101EC00082E702383C446AE7704700BF027D4368FE
:101ED00002B11B6880681844704730B54FF0070E98
:101EE0000B684EF001E003604B684C6943608B68FF
:101EF00045698360CB68C3600B690361002305EB10
:101F0000C30204EBC30103C9013382E803000FF0ED
:101F10000BC030BD08B5044C4FF0FF31204610F027
:101F2000BDFD01F0ADF8F7E7907B003470B52DED05
:101F30000E8B90ED04DAB7EECDDA0D46B0EE4D0B18
:101F400090ED03EA90ED02BA0446164617F000FB46
:101F500095ED007AB6EE00CBB7EEC77A95ED019A13
:101F6000B7EECBBA94ED008A37EE4C7BB7EEC99A48
:101F700027EE0B7BB7EEC88A39EE4C9BB7EECEEA64
:101F8000A7EE008BB0EE40ABB0EE4D0B17F02CFB84
:101F900029EE0E9BA9EE408BB7EEC88B86ED008A2A
:101FA00095ED006AB7EEC66A94ED017A36EE4C6B99
:101FB000B7EEC77A26EE0B6BA0EE067BAAEE097B86
:101FC000BDEC0E8BB7EEC77B86ED017A70BD0000CD
:101FD00008B50021074800F057FF48B101F045F867
:101FE000044800F084FF044B044A1B68013B136063
:101FF00008BD00BFB4470034F4460034F046003456
:1020000008B501F0FBF901F0EBF901F01EF8024A06
:1020100013680133136008BDF4460034014810F022
:102020005DBD00BF907B00342DE9F04F0024ADF57D
:10203000077D4FF0FF31844810F030FD4FF0FF3145
:10204000824810F05BFCF422814949A815F015FC88
:102050007E4810F085FC4D94002402F05BF804905B
:1020600001F0F4F94FF4F0734FF448722146204622
:10207000009411F0F9FE774801F056F82346214606
:1020800007AA744801F08CF811F022FC02222146C4
:10209000714B204601F072FE11F01AFC9DED077A9B
:1020A000B7EEC77AC18802228DED007B6B4B2046CC
:1020B00001F064FE11F00CFCC1880222684B01EBB8
:1020C0004101204601F05AFE11F002FC0222C188B3
:1020D0004A9B914020460093624B01F04FFE11F065
:1020E000F7FB4B9BC188022201EB81012046009344
:1020F0005D4B01F043FE11F0EBFBC18802225B4B0C
:10210000C1EBC101204601F039FE11F0E1FB9DED6C
:10211000497A9FED4B5BB7EEC77A85EE076BC188B6
:1021200002228DED006B2046514BC90001F026FEC6
:1021300049AD0AAF4E9B9C4206DB01F09DF901F0D0
:10214000E9FF049BC41A74E7EB69002B75D00DF10D
:10215000D009AB460026CA4605F138030593CDF8F1
:102160000C900BF14C01059808AAFFF7DFFEDDED9E
:10217000087AFDEEE77A17EE901ADDED097AFDEEAA
:10218000E77A02290A4640F21D3CB8BF022217EE48
:10219000903A6245A8BF6246022B184640F2DD1E07
:1021A000B8BF02207045A8BF7046B3EB000C18BF43
:1021B0004FF0010C914247F826200CBF62460122E5
:1021C000039B0DF17C0848F82600013643F8042BE8
:1021D000152E03930BF1080BC3D1002659F8043BCD
:1021E00043B96FF0FF03022258F8261057F8260073
:1021F00011F08CFE0136152EF0D14FF000094FF092
:102200007F4B1C4E30685AF820307BB972685AF800
:1022100022305BB9CDF800B058F8223058F82010C1
:1022200057F8222057F8200011F01AFD09F1010992
:10223000B9F1150F06F10806E4D10134D83579E774
:102240000000000000408F4004480034244800345F
:10225000584800341046003460B3117069B31170EF
:1022600070B311707AB3117083B311708CB31170A5
:1022700090B31170C8B4117010B52DED0C8B90EDAA
:1022800004CAB7EECCCA0446B0EE40AAF0EE609A9B
:10229000B0EE4C0BD0ED02DAB0EE41DA17F058F99F
:1022A00094ED039A9FED1CBA29EE0AAAB0EE408B7A
:1022B000B0EE4C0B17F098F9B7EECAAA2DEE8BBA18
:1022C00020EE4A7BB7EECBBAABEE087B28EE0A8B4A
:1022D000B7EEC77BD4ED007AF4EE49DAABEE008BB3
:1022E00077EE877AF1EE10FAB7EEC88BC4ED007A7C
:1022F000D4ED017A3DFE899A69EE299A77EE887AC3
:1023000029EE0D9AC4ED029A84ED039ABDEC0C8B74
:10231000C4ED017A10BD00BF000000000000000005
:102320002DE9F04F2DED0C8BF7B011F063FA044658
:1023300011F05CFAD0E9022320469B1A3D93FFF787
:10234000C5FDD4E902233E909B1A04F138003F9367
:10235000FFF7BCFDD4E9102340909B1A42A841939B
:1023600001F0B6F810F000FF074610F0F9FE014644
:10237000FFF7ACFDD1E902320446D31A07F1700031
:102380000693FFF7A3FDD7E91E320546D31A07F1DE
:10239000A8000893FFF79AFDD7E92C32D31A0993C6
:1023A0002FAB1B93064601F0B5FEDFEDDD9A002151
:1023B0008046DC4800F068FD002100F051FEB0EEE0
:1023C00069AA0027B0EE699A9FEDC78B01F0A2FEC3
:1023D000A0EB080307EE903AB2EE0E7AF8EE677AB9
:1023E000E9EE077A9FEDD09A0790CE4827EE899ABA
:1023F00000F067FDCD4B8246D3F80090002F40F0EF
:102400006C8401F087FE51463D9A8046384611F0B3
:1024100081F9C7480BF01CFD3E9B02214C93409B69
:102420004AAA4D934CA842AB01F07AF84B9B002B83
:1024300014BF0127002700F09A804A9BDFEDBD7A88
:10244000D3ED015A93ED026AD3ED036A93ED047A5A
:1024500065EEA75A26EE276A66EEA76A27EE277A68
:102460004FF0070E5A69C3ED015A83ED026AC3EDBE
:10247000036A83ED047A4EF001E0134693ED005AAF
:1024800025EE275A83ED005A93ED015A25EE275A7F
:10249000083303ED015A0FF00FC8DFF8A8A292ED40
:1024A000050A8AED037A92ED017AD2ED007A30EED8
:1024B000470AD2ED040AB1EE400A70EEE70ACAED0F
:1024C000005A8AED016ACAED026A17F0D9F8B7EE30
:1024D000C07A38EE477BB7EEC77B9FED855BB7EEE2
:1024E000C77A9FED854B37EE055B85EE046BB7EE43
:1024F000C66BBBFE466AB7EEC66AA6EE447BB7EE75
:10250000C77B9FED7F6BB7EEC77AB4EEC67BF1EE6B
:1025100010FA4FF0000B80F2DA839FED7B6BB4EE84
:10252000C67BF1EE10FA80F2D5839FED795BB4EEB5
:10253000C57BF1EE10FA06EE90BA0BDA9FED766BE2
:10254000B4EEC67BDFED7C6AF1EE10FADFED7B7A4C
:1025500066FEA76A9FED7A1ABEEE000AF0EE410A07
:102560007848CAED046AFFF787FECAF810B03F9AB0
:10257000002A1DDD3E9B03F01F001044BFF34F8F68
:10258000DA4303EB000C624420385209203002F198
:10259000010ED8BF4FF0010E4EF001E06A49C1F8BC
:1025A0005C3220330FF005C8BFF34F8FBFF36F8F3E
:1025B000419A002A1DDD409B03F01F001044BFF329
:1025C0004F8FDA4303EB000C62442038520920306D
:1025D00002F1010ED8BF4FF0010E4EF001E05A4952
:1025E000C1F85C3220330FF005C8BFF34F8FBFF343
:1025F0006F8F01F08FFD4A9BA0EB08001B681693BC
:1026000007EE900AB1EE0CBAF8EE677AF4EE00AA83
:10261000EAEE0B7A434827EEAAAA00F050FC3846AF
:10262000002F00F0D68201F075FD464F09F0030B34
:102630000B90584600F0CAFEF6EE00BA97ED027A0B
:10264000D7ED037A97ED04DA27EE6B7A67EEEB7A33
:10265000B7EECDDAF1EE476ACDED247ACDED267AEC
:10266000F1EE677AB0EE4D0B0A908DED237ACDED49
:10267000256ACDED276ACDED287A8DED297ACDED4D
:102680002A7A16F065FFB0EE40CBB0EE4D0B16F097
:10269000ABFF4FF0040E23A803464EF001E093ED8C
:1026A000017A93ED006AB7EEC77AB7EEC66A27EEF5
:1026B000405B2CEE077BACEE065BA6EE007BB7EE34
:1026C000C55BB7EEC77B83ED005A83ED017A083313
:1026D0000FF01BC84FF0040ED7ED006A97ED017A9A
:1026E0004EF001E023AB33E0182D4454FB21F93FB9
:1026F000182D4454FB210940182D4454FB21194046
:10270000D221337F7CD90240182D4454FB21E93F6C
:10271000182D4454FB21E9BFD221337F7CD902C05C
:1027200000000000B44700340000803DF046003453
:102730003000003400004844DB0FC9BFDB0F49C044
:1027400066662640A047003400ED00E000006043CC
:10275000D3ED007A77EEA67AC3ED007AD3ED017A55
:1027600077EE877A083343ED017A0FF00FC8002225
:1027700040F21F3A964640F2DF184FF0040C4CAB83
:102780000592D0ED007AFDEEE77A17EE907AC3ED70
:10279000007AD0ED017AFDEEE77A002F17EE902A4D
:1027A000C3ED017A80F2AB82002AC3F800E007DAB9
:1027B000C3F804E01968B1F5487FA8BFC3F800A0CA
:1027C0005968B1F5F07F1968A8BFC3F804808F423B
:1027D00040F099825F68BF1A18BF0127059ABCF1C3
:1027E000010C42EA0702059200F1080003F1080318
:1027F000C7D1DDE94C78509BA3EB0709519BA3EBB4
:10280000080A002A00F081820021069A204614F06E
:102810009DFD07EE908A9DED247ADDED286AF8EEA5
:10282000E77A76EEC76A77EEC77A1FED387A67EEF9
:10283000877AC7EEA65AFDEEE57A17EE902A07EEE4
:10284000907A9DED235AF8EEE77A9DED276A77EEB0
:10285000C57A36EE456A67EE877AC7EE865AFDEE90
:10286000E57A17EE901A07EE909AF8EEE75AC5EE61
:10287000867A67EE877A4FF42873FDEEE77A01EBEC
:10288000410103FB021117EE903A07EE90AAB8EE51
:10289000E76AC6EE267A67EE877AFDEEE77A17EEEC
:1028A00090CA21444FF4166207EB470702FB0870F9
:1028B0000A9FCDE9023C07444FF428733846CDE91E
:1028C000009A0CF0F7F8069B002B1CDD04F01F00AB
:1028D0001844BFF34F8FE34327183B4420385B096C
:1028E000203003F1010ED8BF4FF0010E22464EF00A
:1028F00001E0E149C1F8702220320FF005C8BFF3B2
:102900004F8FBFF36F8FDD480BF0A2FA3146284698
:10291000DB4A00F025FE089B8046002B1CDD05F0FD
:102920001F021A44BFF34F8FEB43AF183B44203ACA
:102930005B09203203F1010ED8BF4FF0010E29468A
:102940004EF001E0CC48C0F85C1220310FF005C811
:10295000BFF34F8FBFF36F8F099B002B1CDD06F079
:102960001F021A44BFF34F8FF343B7183B44203A7A
:102970005B09203203F1010ED8BF4FF0010E314642
:102980004EF001E0BC48C0F85C1220310FF005C8E1
:10299000BFF34F8FBFF36F8FB8F10007584618BFD2
:1029A000012700F013FD00F01F0E0EF58C1E0EF532
:1029B000A05EBFF34F8F0EF1FF3E4FEA5E1E0EF199
:1029C000010E4EF001E0AC4BC3F85C0220300FF07A
:1029D00005C8BFF34F8FBFF36F8FB8F1000F00F042
:1029E000F4804FF00008DFF8BC924CAB03EB080218
:1029F000A34B484603EB080108F10808FFF796FAD5
:102A0000B8F1A80FF1D1DFF8A0C20DF1700EBCE84B
:102A10000F00AEE80F009CE807000CF10C0C8EE8EC
:102A20000700BCE80F000DF18C0EAEE80F00BCE80B
:102A30000F00AEE80F009CE80F00DDED4D7A9DED34
:102A40005F0ADDED5E0A30EE670ADDED4C7AB1EE2D
:102A5000400A70EEE70A8EE80F0016F011FEB7EE9E
:102A6000C07A38EE477BB7EEC77B9FED774BB7EE6A
:102A7000C77A9FED775B37EE044B84EE056BB7EEBC
:102A8000C66BBBFE466AB7EEC66AA6EE457BB7EEDE
:102A9000C77B9FED716BB7EEC77AB4EEC67BF1EEE4
:102AA00010FA80F236819FED6E6BB4EEC67BF1EECC
:102AB00010FA80F231819FED6C6BB4EEC67BF1EEC3
:102AC00010FA80F22C819FED6A6BB4EEC67BDFEDCD
:102AD0006D7AF1EE10FA9FED6C7A67FE877ACDED94
:102AE000157ADFED6A6ADFED6A7AB0EE666AB0EEFB
:102AF000677A0C2123AB53F8042B4CA800EBC202DD
:102B000092ED005AD2ED015AB4EEC75AF1EE10FA26
:102B1000F4EEE75A58BFB0EE457AF1EE10FAB4EE93
:102B2000C56A58BFF0EE657AF1EE10FAF4EEE65A97
:102B300058BFB0EE456AF1EE10FA76FEA56A01398B
:102B4000D9D137EE065A77EEA65A25EE2B5A65EE06
:102B5000AB5A37EE467A77EEE67A4FF0070E8DEDF8
:102B6000115ACDED125A8DED137ACDED147A8DED0B
:102B7000175ACDED185A8DED197ACDED1A7A4EF01F
:102B800001E01B9A1CAB53F8041B4CA800EBC101DD
:102B9000086849681060516008320FF00DC0B0EE4F
:102BA000001A11A8F0EE410A9FED3A0AFFF764FB04
:102BB00000230DF1300E0DF1440C1593BCE80F000D
:102BC000AEE80F000023CEF8003001F0A3FA0B9B13
:102BD000C01A07EE900AF8EE677AE9EE8B7A4FF0AA
:102BE000FF312D4867EEAA9A0FF088FE002F40F0C3
:102BF0009980FDEECA7A17EE902A284B9A653A46DC
:102C00001FB1FDEEE97A17EE902A4A99DA650A6853
:102C1000234883ED159A9F66DA661F67DFF88C807C
:102C2000FFF75BF9DFF87CC0BCE80F00A8E80F00F5
:102C30004046DCF80030A822114940F8043B14F06B
:102C40001CFEA8F17C0037E0182D4454FB210940FC
:102C5000182D4454FB211940D221337F7CD90240E6
:102C6000182D4454FB21E93F182D4454FB21E9BFA2
:102C7000D221337F7CD902C000ED00E00000003497
:102C8000F8460034DB0FC9BFDB0F49C000401C46CB
:102C900000401CC6CDCCCCBD2448003404480034D0
:102CA00078480034A0470034F8B0117090480034E0
:102CB000DB0F4940DB0FC93F0FF052FEA8F19C002B
:102CC00001210FF069FEDDF81C80FFF77FBB5FED8F
:102CD000086A3FE45FED096A3CE4DFF858C00DF193
:102CE000300EBEE80F00ACE80F00DEF800304A9866
:102CF00016A9CCF80030FFF7F0F8002080E4002A95
:102D0000BFF658AD54E5012768E5E02321469C460F
:102D1000C8E5DFED057AE2E6DFED047ADFE6DFED18
:102D2000047ADCE6002268E7DB0F4940DB0FC93F8D
:102D300000000000A0470034F0B58BB000F0A4FA0A
:102D40002F4B08AA93E8030082E8030002212D48D4
:102D500000F07EF82C4800F0D9F900222B4B2C49CA
:102D60002C4800F009F90022202311462A480FF0D0
:102D700027FE0022294C1146202320460FF020FE7A
:102D800034230122002104F120000FF041FD00F066
:102D900027FB002100F054F90A251D230126C02736
:102DA0004FF48054CDE9033502931D4BCDE90567FF
:102DB00000931C4A00231C4901941C480FF09AFE02
:102DC0001E23CDE902331A4BCDE905670093194A5A
:102DD000002319490495019418480FF08BFE1C2319
:102DE000CDE90233164BCDE905670093154A002360
:102DF00015490495019415480FF07CFE0BB0F0BD09
:102E000044B11170B447003410460034D11F107023
:102E1000012010701D201070907B00340448003495
:102E2000D06A00342123107095B31170D07A003429
:102E3000105A0034292010709FB31170106A0034AA
:102E40004C490034151F1070A9B31170505900344B
:102E500070B520230D4616460A46002104460FF0A1
:102E6000AFFD20230022E01811460FF0A9FD84F8E1
:102E700040502DB13368012D63641CBF7368A36497
:102E80000023A4F84C3070BD003918BF012110B5E3
:102E9000494204460FF002FE0D280ED094F84C3043
:102EA00004EB8302506C94F840200133B3FBF2F141
:102EB00002FB113384F84C3010BD0020FCE70FF00A
:102EC0000DBE10B504464FF0FF3120300FF0E6FD87
:102ED00094F84D3004EB8302506C94F84020013399
:102EE000B3FBF2F102FB113384F84D3010BD2030FA
:102EF0000FF0F4BD07EE901AF8EE676A07EE902A1D
:102F00009FED1B6AB8EE677ADFED1A5A86EE865A95
:102F1000C7EE257AB4EE675AF1EE10FA48BFF0EE2C
:102F2000457A27EE866A67EEA57AF4EEC66AF1EE78
:102F300010FAB4EEE77ACCBFFCEEC66AFCEEE66AA5
:102F4000F1EE10FA16EE903ACCBFBCEEE77ABCEE8A
:102F5000C77A0131C91A17EE103A0132D21A49085C
:102F60005208C0ED006A80ED017A8160C26070474E
:102F7000000048440000F0432DE9F04F4FF00209F3
:102F800093B007460E4615460021142201A81C46A0
:102F900014F0DCF901A8CDF818900CF0B7F8DDE9D1
:102FA00001AB242200210DEB020014F0CFF94FF405
:102FB000F0734FF448724FF00308CDE907235146F0
:102FC0005A460EA8CDF82880CDF83480FFF792FF3E
:102FD0006A4607A901200BF053FFDDE901AB24226B
:102FE00000210DEB020014F0B1F9C0217323CDE9EB
:102FF000071301235A4651460EA8CDF828800B939B
:10300000CDF83480FFF776FF6A46484607A90BF0F3
:1030100037FF0FB1064B1F600EB1064B1E600DB19E
:10302000054B1D600CB1054B1C6013B0BDE8F08F63
:10303000BC7B0034B87B0034B47B0034B07B0034FC
:103040000A46014601200BF0DDBF10B504460BF027
:1030500013FF2346BDE810400022012103F05CBAB3
:103060000A46014602200BF0CDBF10B504460BF016
:1030700003FF2346BDE810400022022103F04CBAB2
:103080000CF0A0B800B5E5B04FF4C8720021684656
:1030900014F05CF918220023CDE900234FF400134B
:1030A0004FF0805132930323CDE922132823684641
:1030B000259304F091FF003818BF012065B05DF83A
:1030C00004FB0000012808B505D1054B1B6803B1BE
:1030D0009847002008BD0228FBD1024BF6E700BF4D
:1030E000BC7B0034B47B0034012808B505D1054B06
:1030F0001B6803B19847002008BD0228FBD1024B92
:10310000F6E700BFB87B0034B07B0034054A0021ED
:10311000D2F8FC3043F08073C2F8FC30E02214F0A7
:1031200015B900BF00ED00E070B5044600F13805A8
:1031300000F120060FCE0FC596E8030086B085E8A3
:10314000030068460FF09AFE02A80FF0A1FE04A843
:103150000FF0A8FEDDE90010029B049D039ACB1836
:1031600040EB02025B19059DC4E90A1042EB05021F
:10317000C4E9083200F0CEFFA36C226E20639B1AD4
:10318000B3F57A7F04F1380107D3902204F150009F
:1031900006B0BDE8704014F0BFB806B070BD0000C6
:1031A000F8B504462DED028B16461D460F46F9B1C3
:1031B000D4E91023D0E90A01801A61EB0301FEF77C
:1031C00073FCD4E90E239FED2E7B41EC180BD4E960
:1031D0000801801A61EB030128EE078BFEF764FCFF
:1031E00041EC160B88EE067BB7EEC77B87ED007AC5
:1031F000FEB1D4E91C32D4E91601C01A61EB020118
:10320000FEF752FCD4E91A329FED1D7B41EC180BFE
:10321000D4E91401C01A61EB020128EE078BFEF716
:1032200043FC41EC160B88EE067BB7EEC77B86EDC0
:10323000007AFDB1D4E93432D4E91601C01A61EB49
:103240000201FEF731FCD4E932329FED0D7B41ECF7
:10325000180BD4E91401C01A61EB020128EE078BA8
:10326000FEF722FC41EC160B88EE067BB7EEC77B1F
:1032700085ED007ABDEC028BF8BD00BFAFF3008096
:1032800000000000000059402DE9F041424D86B099
:1032900018220021684614F059F8002128463F4AB8
:1032A00014F054F8BFF34F8FDFF81CE100234EF009
:1032B00001E03B4AE918C2F8701220330FF007C052
:1032C000BFF34F8FBFF36F8F364C00212046364A35
:1032D00014F03CF8BFF34F8F4BF6803E00234EF0C6
:1032E00001E02F4AE118C2F8701220330FF007C036
:1032F000BFF34F8FBFF36F8F002401264FF4487840
:103300004FF4F07701F054FA642001F091FA274B62
:10331000274A1B78694602FB03552046CDE9037610
:1033200000940294CDF80480059501F049FA0098C4
:10333000019A204B121A02999A60039A1860521A45
:103340005960DA60042304931B4B694630460593A9
:10335000CDE901840094039701F032FA0098019AB4
:10336000164B121A02999A60039A1860521A14485E
:103370005960DA6010F046FA304610F073FA2046D1
:1033800010F0B2FD0F4810F09BFA4FF0FF3010F034
:103390008FFA06B0BDE8F08100D01A9100504600C7
:1033A00000ED00E000600391007017006000003441
:1033B00000941100D07B003400180F91C07B0034C2
:1033C0007CB51170F040003480320200024A034B99
:1033D00002FB0030704700BF0094110000D01A912A
:1033E000034B04481A78044B00FB0230704700BFBF
:1033F000E17B00340094110000D01A9110B50F4CFD
:103400000F4A2378013303F0030323701378013349
:1034100003F00303137001F015FA2178094B0A4CED
:10342000002204FB013104F0AEFB01F00BFABDE811
:1034300010400022022104F08ABB00BF600000346B
:10344000E17B003400D01A910094110010B572B6DF
:1034500001F0F8F9054B064C1978064B012204FBE4
:10346000013104F090FB62B610BD00BFE07B003478
:1034700000B80B000060039110B5114C114922787F
:10348000114B01FB0233BFF34F8F45F6C05E4EF088
:1034900001E00E4AC2F8683220330FF005C8BFF3CE
:1034A0004F8FBFF36F8F72B601F0CCF9012202216A
:1034B00004F04DFB62B62378C3F10103237010BD05
:1034C000E07B003400B80B000060039100ED00E0E9
:1034D000C02300B5C0E90033072383604FF07C535D
:1034E0001421C3600A4B41F001E003614FF4FC6317
:1034F000C0E90531074B084AC361084B5A613832AD
:1035000018330FF005C85DF804EB0DF006BF00BFDF
:10351000CDCCCC3E64000034E47B003444800034E5
:1035200013B50C46022C11461A4606D04FF487718B
:10353000074B084A084812F0F7FC036800934368F9
:1035400068460193054B0B600DF0EAFE02B010BD1A
:103550002CB41170B4B411703AB4117044800034BA
:1035600090ED007AF5EE007AB4EEE77AF1EE10FA1B
:1035700000B518D44FF0150EDFED0C7A4EF001E0D7
:10358000D1ED006A86EEA77A82ED007AD1ED016A6C
:1035900086EEA77A0C3182ED017A08320FF011C065
:1035A00001205DF804FB0020FBE700BF0000604342
:1035B000044B82B0C3F85C0AD3F85C320193019BE0
:1035C00002B07047008002562DE9F04F99B001F02B
:1035D000A3F91422002113A813F0B8FE0820FFF766
:1035E000E7FF1020FFF7E4FF0220FFF7E1FF802054
:1035F000FFF7DEFF4FF40040FFF7DAFF4FF48040A3
:10360000FFF7D6FF4020FFF7D3FF2020FFF7D0FFC2
:103610004FF40050FFF7CCFF0120012503244FF4A5
:1036200080664FF00208FFF7C3FF02464FF4806147
:10363000454803F0B5FB00225021444803F0B0FB9D
:1036400000220821424803F0ABFB01224FF48061C5
:103650003E4803F0A5FB3C4813A9CDE91365CDE92D
:10366000158403F0FDF950230827384813A9CDE944
:103670001335CDE9155403F0F3F9354813A9CDE915
:103680001375CDE9155403F0EBF913A92F48CDE9D3
:103690001365CDE9158403F0E3F94FF4E133DFF866
:1036A000CC902C4A4846C9E9002300230C22C9E9E2
:1036B0000233C9E90523C9E90733C9E90933C9F860
:1036C000103008F054FA014608B172B6FEE74846D9
:1036D00008F0BBFA014608B172B6FEE7484608F0AA
:1036E000D4FA08B172B6FEE7484608F093FA08B17A
:1036F00072B6FEE7DFF878B0174B5846CBF80030CB
:1037000004F0D6FA08B172B6FEE7DFF868A0134BF2
:103710005046CAF8003004F0CBFA08B172B6FEE7A2
:10372000DFF854900E4B4846C9F8003004F0C0FA58
:1037300008B172B6FEE70B4A0B4B1046136004F05B
:10374000B7FAD8B172B6FEE700100256001802565A
:103750000000025600100052003102528031025225
:10376000003202527C93003480320252E8920034DC
:10377000A093003494930034889300340190584609
:1037800004F0B3FA50464FF4007A04F0AEFA48461B
:10379000DFF83C9304F0A9FABD4804F0A6FAC9F892
:1037A00058AAD9F8582213A903920920039ACDE9FF
:1037B000138407F013FF384613A907F00FFF13A96E
:1037C0000A2007F00BFF13A90B2007F007FF28467C
:1037D00013A907F003FF2146AE4807F015FF214665
:1037E000AD4807F011FF2146AC4807F00DFF214618
:1037F000AB4807F009FF2146AA4807F005FF21461C
:10380000A94807F001FF2846202104F0E9F93946CC
:1038100040F20132A54803F0C8FA40F2013210210B
:10382000A34803F0C2FA40F201324FF48041A048AD
:1038300003F0BBFA40F2013220219E4803F0B5FAB2
:1038400040F2013240219B4803F0AFFA314640F28A
:103850000132984803F0A9FA40F20132102196484B
:1038600003F0A3FA40F201324021934803F09DFA9D
:10387000314640F20132904803F097FA294640F26F
:1038800001328E4803F091FA414640F201328B48F2
:1038900003F08BFA40F201320421884803F085FAE4
:1038A000394640F20132854803F07FFA40F2013296
:1038B0001021824803F079FA40F2013220217F483A
:1038C00003F073FA40F2013240217C4803F06DFAB4
:1038D00040F201324FF48071784803F066FA5146A5
:1038E00040F20132754803F060FA314640F201328D
:1038F000724803F05AFA40F201324FF400616F4807
:1039000003F053FA294640F201326D4803F04DFAB4
:1039100040F2013204216A4803F047FA40F20132D2
:103920001021674803F041FA40F201322021644837
:1039300003F03BFA294640F20132624803F035FABF
:10394000414640F201325F4803F02FFA40F2013263
:1039500004215C4803F029FA394640F20132594803
:1039600003F023FA40F201321021564803F01DFA09
:1039700040F201322021534803F017FA40F201329D
:103980004021504803F011FA40F2013280214D48A5
:1039900003F00BFA21464C4807F036FE019B18460F
:1039A00000F054FF4FF00043C9F8603AD9F86022A4
:1039B0000492049A454AC9F8203AC2F82032C9F85C
:1039C000586AD9F858320593059BC9F8186AC2F8A5
:1039D000186208F0F9F908F001FA4FF0FF33C9F85E
:1039E000843AD9F884221392139AC9F88C3AD9F8F8
:1039F0008C221292129AC9F8903AD9F89022119218
:103A0000119AC9F8943AD9F894221092109AC9F8E8
:103A1000983AD9F898220F920F9AC9F89C3AD9F897
:103A20009C220E920E9AC9F8A03AD9F8A0220D92C3
:103A30000D9AC9F8A43AD9F8A4220C920C9AC9F8A4
:103A4000A83AD9F8A8220B920B9AC9F8AC3AD9F83F
:103A5000AC220A920A9AC9F8B43AD9F8B422099267
:103A6000099AC9F8B83AD9F8B8220892089AC9F858
:103A7000BC3AD9F8BC220792079AC9F8883AD9F813
:103A800088320693069B19B0BDE8F04FFFF754B992
:103A90007C9300341D00002005000030060000303B
:103AA00007000030080000300A0000300000025615
:103AB000000C02560010025600180256003402563E
:103AC00000380256003C02561C00002000900256AE
:103AD0000080025608B52D4B1A6842F400521A6055
:103AE0001A6842F480521A60A3F573435A6912F4BB
:103AF000003211D1BFF34F8FBFF36F8FC3F8502245
:103B0000BFF34F8FBFF36F8F5A6942F400325A618F
:103B1000BFF34F8FBFF36F8F1D4A536913F4803388
:103B200028D1C2F88430BFF34F8F43F6E074D2F847
:103B30008030C3F3C900C3F34E335B0100F1010EC3
:103B400001464EF001E003EA040646EA8175C2F838
:103B5000605201390FF007C8203B13F1200FEDD15F
:103B6000BFF34F8F536943F480335361BFF34F8FDB
:103B7000BFF36F8F00F0D0FE00F0E8FF0DF0C8FD3E
:103B80000DF0A0FD00F0C8FEFEE700BF00E001E080
:103B900000ED00E008B54FF440330748074A022122
:103BA000C0E900230023C0E9021302F026FE08B199
:103BB00072B6FEE708BD00BFA8940034001002589A
:103BC00010B5114A114C124B2046C4E900230023C2
:103BD0000122C4E90433C4E90232C4E90633236292
:103BE00003F035FA014608B172B6FEE7204603F04D
:103BF00055FC014608B172B6FEE7204603F074FC9E
:103C000008B172B6FEE710BD00580050549400345D
:103C1000FFEDC0302DE9F0439BB03422002168460F
:103C200013F094FB342200210DEB020013F08EFB05
:103C30000023314C314A2F21C4E90023022287207E
:103C4000C4E90512222240F2A735C4E9070240F276
:103C5000022240F2CF36C4E9095240F20F22204638
:103C6000C4E90B62C4E902332361A38684F83630C9
:103C700003F0DAFE024608B172B6FEE74FF448766A
:103C80004FF0FF094FF4F07504234FF4C068072785
:103C9000CDE90160CDE90590CDE909060090ADF8C8
:103CA00030008DF8320069462046CDE90353CDE956
:103CB00007870B9503F012FF08B172B6FEE70823E1
:103CC000CDE90D06CDE90F05CDE91308CDE9157055
:103CD000ADF864008DF86600012220460DA9CDE9FB
:103CE0001139CDE9176503F0F9FE08B172B6FEE7A8
:103CF0001BB0BDE8F08300BFAC9300340010005847
:103D00000123C02200B589B00A21CDE905321F2365
:103D1000CDE9033102934FF480530193064B074AD8
:103D200000930749002307480EF0E4FE08B172B67D
:103D3000FEE709B05DF804FB24820034C935107039
:103D400070B511702892003472B6FEE7C0B26DED06
:103D500081CF11B140B1012809D09FEC100A9FE832
:103D60000F90FDEC81CF7447024B1960F5E7024BD1
:103D7000FBE700BF149500341095003408B4F3B588
:103D800004460D46164607AB094F53F8042B302165
:103D90003846019313F01EFA33463A462946204628
:103DA0000FF014FF02B0BDE8F04001B0704700BF53
:103DB00018950034044B82B0C3F84C0AD3F84C3247
:103DC0000193019B02B0704700800256044B82B001
:103DD000C3F85C0AD3F85C320193019B02B07047D0
:103DE00000800256044B82B0C3F8600AD3F86032F8
:103DF0000193019B02B070470080025608B503F0A2
:103E00003FFF0121084603F00BFF03F041FF0121B2
:103E1000022003F005FF03F043FFBDE80840002146
:103E2000032003F0FDBE00000268034B9A4202D15A
:103E30000220FFF7D7BF70470010025810B50446A4
:103E4000EAB01422002101A813F080FA4FF4C872DE
:103E5000002106A813F07AFA2268174B9A4228D15B
:103E600000234FF40052CDE90623144B06A84193DA
:103E700004F0B2F808B1FFF767FF0820FFF7A6FFCC
:103E800044F2100212230021CDE901230323CDE9DE
:103E9000031304230A480DEB0301059302F0E0FD30
:103EA0004FF48002074BC3F8642AD3F864320093BE
:103EB000009B6AB010BD00BF005800500C04000702
:103EC000000C02560080025608B50268094B9A425F
:103ED0000FD14FF48002084B10210848C3F8642228
:103EE00002F0AEFEBDE808404FF48041034802F006
:103EF000A7BE08BD0058005000900256000C0256A4
:103F0000F0B50446EBB01422002101A813F01EFA0C
:103F10004FF4C872002106A813F018FA22683A4B31
:103F20009A426ED100234FF08072CDE906234FF004
:103F300000734C9318234FF000510DEB0300CDE9B3
:103F4000261304F049F808B1FFF7FEFE02242F4BB8
:103F50002046C3F87C4AD3F87C3200260093009BAD
:103F6000FFF734FF8020FFF731FF2020FFF72EFFFF
:103F70000120FFF72BFF4020FFF728FF03250E2726
:103F800049F63243224801A9CDE90134CDE9036560
:103F9000059702F065FD10231E4801A9CDE9013403
:103FA000CDE90365059702F05BFD4FF440731A48B5
:103FB00001A9CDE90134CDE90365059702F050FD73
:103FC00049F6A773154801A9CDE90134CDE9036588
:103FD000059702F045FD4BF20623114801A9CDE9F2
:103FE0000134CDE90365059702F03AFD0123CDE9DF
:103FF00001340A230A4801A9CDE90365059302F0BB
:104000002FFD6BB0F0BD00BF0010005800800256BD
:1040100000040256001C025600140256000002560C
:104020000018025607B54FF480520120FFF7C2FE78
:104030000220FFF7BFFE0420FFF7BCFE0820FFF7B9
:10404000B9FE054BC3F8542AD3F854320193019BAF
:1040500003B05DF804FB00BF0080025610B50446B3
:10406000EAB01422002101A813F070F94FF4C872CD
:10407000002106A813F06AF92268144B9A4223D152
:104080004FF480730022CDE90623114B06A85A9302
:1040900003F0A2FF08B1FFF757FE10200D4B60227E
:1040A000C3F86C0AD3F86C3201A90093009BFFF7A8
:1040B0008DFE0223CDE901230023CDE9033307233D
:1040C0000548059302F0CCFC6AB010BD0010005208
:1040D00030000107008002560010025608B5026841
:1040E000094B9A420ED14FF48060FFF763FE4FF008
:1040F0008040FFF777FE054BC3F8200A03F5805395
:10410000C3F8200208BD00BF00FC0D580080025615
:10411000002070470EF02ABA0EF054B8FEE7FEE712
:10412000FEE7FEE7FEE7FEE77047704708B50AF0D6
:10413000A3FEBDE8084001F0A4B808B50AF09CFE53
:10414000BDE8084001F0D4B90120704708B513F06C
:1041500051FB162303604FF0FF3008BD08B513F084
:1041600049FB16230360FEE770B50D4614460E4664
:10417000731B9C4201DC204670BDAFF3008006F843
:10418000010BF5E770B50D4614460E46731B9C42B5
:1041900001DC204670BD16F8010B00F061FBF5E76D
:1041A0004FF0FF3070474FF4005300204B607047D2
:1041B00001207047002070470B4A0346116810B574
:1041C00009B90A491160106809490A4C0344091BDE
:1041D0008B4206D913F00EFB0C2303604FF0FF3027
:1041E00010BD1360FCE700BF48950034D0220134B5
:1041F00000002034000800000F4880F30A880F48B0
:10420000854600F03DFB0E480E490F4A002302E0B0
:10421000D458C4500433C4188C42F9D30B4A0C4C04
:10422000002301E013600432A242FBD313F0E8FA4A
:10423000FFF750FCFEE7000000F81F3400002034B8
:1042400000000034C0420034F4A01F70C0420034AB
:10425000CC220134FEE7000008B5044B1A781AB9E5
:1042600001221A70FFF7ACFC002008BD4C95003409
:1042700008B5064A137833B1013BDBB2137013B9AA
:10428000034802F039FF002008BD00BF4C95003400
:10429000549400341FB54FF47A740092CDE9013480
:1042A0000A4602230146044802F040FF003818BFC6
:1042B0000120404204B010BD549400341FB54FF4A7
:1042C0007A740092CDE901340A460223014604487B
:1042D00003F006F8003818BF0120404204B010BDBA
:1042E00054940034FFF716BF70B534260D4D0E48B8
:1042F000AC682D6806FB0400846C05FB0211C06DE0
:1043000024B950F8212000201A6070BD062C05BF8A
:1043100001EB41010A5830F8112022F07F4218BF0A
:1043200092B2F0E750950034AC930034F0B53427E6
:104330001D4C1E4EA06807FB0060D0F848C0C56D3C
:10434000206800FB0210BCF1000F03D145F82030BB
:104350000020F0BDBCF1060F22D15FFA83FC00EB18
:104360004000033D00F805C0A568206807FB05650F
:1043700000FB0210ED6D00EB4000C3F3072C023D83
:1043800000F805C02068C3F3074300FB0212A168D0
:1043900002EB420207FB0166F16D01395354D7E786
:1043A0009BB225F81030D3E750950034AC9300341D
:1043B000024B00201B680B60704700BF5095003413
:1043C000024B00205B680B60704700BF50950034C3
:1043D00034200F4B0F4A996000FB01210A6E1A60CE
:1043E0004A6E5A608A6C042A0BD0082A0CD0062A1E
:1043F0000BBF03220422012100210020C3E9031284
:10440000704702221146F8E702220421F5E700BFB7
:1044100050950034AC930034024B0020DB680B60F5
:10442000704700BF509500342DE9F3419046304A63
:104430000F46D16806460229089C35D140F2031C7C
:1044400040F20F20C4F34515C4F3C4220CFB05F55C
:10445000424304F01F04444321351732AD09920949
:104460002D02173445EA024545EA941545F07F448C
:104470004FF440321F4D2048C5E90213C5E9000240
:10448000284602F0BAF978BB3B4632462146284618
:10449000CDF8008002F0EEF930BB3221284602B0A0
:1044A000BDE8F04102F000BA042917D1C4F3033289
:1044B00002EB0210C4F3032202EB0212120442EADE
:1044C000006204F00F0000EB00100243C4F303107D
:1044D00004F0F004044442EA0424C9E7012914BFAB
:1044E000002144F07F44C3E702B0BDE8F08100BF83
:1044F00050950034A89400340010025873B50C4D48
:104500000C462E69A86819462B68342502FB034423
:10451000084A5B1A05FB0022D06D079A06FB0400CF
:104520000092069AFFF780FF002002B070BD00BF26
:1045300050950034AC93003473B50C4D14462E697D
:10454000A8681A462B68342504FB03140849013B6C
:1045500005FB0011C86D069906FB040000910121BE
:10456000FFF762FF002002B070BD00BF509500341D
:10457000AC93003437B50C4619460B4B18681D69CF
:1045800000FB024434209A68084B00FB0233D86DCC
:10459000069B05FB0400009301220023FFF744FF64
:1045A000002003B030BD00BF50950034AC93003400
:1045B0002DE9F34190461C4A0646D5680F46022D68
:1045C00007D02A46681E41424141042D14BF0D46C2
:1045D00015464FF48032154C15492046C4E90012A7
:1045E0000022FF21C4E91123A560E260E264216595
:1045F00002F003F9A0B90121204602F0D3F978B9FD
:1046000001233A46009331464346204602F032F9F0
:1046100030B93221204602B0BDE8F04102F044B981
:1046200002B0BDE8F08100BF50950034A89400347A
:10463000001002582DE9F74F294E1C46F3688846B2
:10464000022B154607D01A46581E41424141042B01
:1046500014BF0B4613464FF0340A0D9FDFF88490C9
:10466000DFF884B02F44BD4203D1002003B0BDE881
:10467000F08FB16830680AFB019105FB008C32694C
:10468000C96D02FB0C114243002A1DDD04F01F001E
:104690001044BFF34F8FE24304EB000E7244203806
:1046A0005209203002F1010ED8BF4FF0010EA4468E
:1046B0004EF001E0CBF868C20CF1200C0FF007C0FF
:1046C000BFF34F8FBFF36F8F20460C9A0193FFF714
:1046D0006FFF0C9B3269013502FB0344019BC2E76B
:1046E00050950034AC93003400ED00E04FF0340CF2
:1046F0002DE9F84F1F4F9D8B3C68BE6804FB0211EB
:104700001D4A3C690CFB0622D66DA5F12002072A42
:1047100004FB0166D3F80A00D3F812A0D3F8169070
:1047200017D9A5F11002082A34BF4FF0020B4FF041
:10473000010B4FF00008ED080AFB05F509F1FF3207
:1047400005FB02006D421C18C84505D10020BDE8DC
:10475000F88F4FF0000BECE731465B46204652469F
:10476000FFF726FF3B6939682C4401FB036608F11B
:104770000108E9E750950034AC930034022810B5E5
:10478000044605D001280ED0042814BF04240224B6
:10479000064BC3E90304C3E90012FFF7FBF9BDE8C8
:1047A0001040FFF737BA0324F2E700BF50950034FA
:1047B0004FF4F0724FF448710220FFF7DFBF0000A2
:1047C00070B5FF260C468EB024220021054605A8B0
:1047D00012F0BCFD4FF4C06E06960726A268E3688F
:1047E000206804939B1A61680C932369CDE908E65D
:1047F00066690291022BA1EB0001019003920A96D7
:104800000B910AD1042305936B1E5A425A4101A908
:10481000064803F063F90EB070BD042B01D10823E4
:10482000F1E7002BF0D00623EDE700BFAC93003496
:10483000024600B101220821014802F0B1BA00BFCE
:104840000000025600487047AC930034034B02222C
:10485000186800238068194612F066BB04410034D2
:1048600007B54FF6FF730190012201A9034807F035
:10487000CCF8019803B05DF804FB00BFE892003467
:104880001E491F4AD1F88C3010B543F44063C1F87B
:104890008C30536B23F0E05343F08053536300227A
:1048A000184BC3F88022C3F88422C3F88822C3F8C7
:1048B0008C22C3F89022C3F89422C3F898220122D4
:1048C000114B8B60114BC3F8782AD3F878028C68AF
:1048D0000F4803F5805304610069C3F87822D1F8CA
:1048E00088300C4A43F47003C1F88830D2F888301D
:1048F00043F47003C2F8883010BD00BF00ED00E043
:1049000000EF00E000E100E00004107000800256BB
:104910000080005600ED02E07B4BF0B51A6A02F40D
:104920004012B2F5001F00F0D18008D8002A39D01B
:10493000B2F5801F3CD00022744B1A60F0BDB2F576
:10494000401FF8D1D3F8C42002F04052B2F1805F8A
:1049500036D0B2F1005F44D0002A52D1D3F8802083
:1049600012F0006402F0E04140F0B980D3F8840016
:10497000D3F88830C2F30B2520F07F400C46B4F109
:10498000005FC3F3C266C2F30551C3F3026300F0D4
:10499000948000F29D80002C47D0B4F1805F7CD0E1
:1049A000002249E09B6C5A4AC3F3C113DA40C3E7C3
:1049B0005B6C584A13F4007F574B08BF1A46BBE79D
:1049C000D3F8902012F0006402F0E04140F08780BC
:1049D000D3F89400C2F30B25D3F8983020F07F4031
:1049E000CCE7D3F8A02012F0006402F0E04176D1C9
:1049F000D3F8A400C2F30B25D3F8A83020F07F40F1
:104A0000BCE7D3F8B02012F0006402F0E04166D1B8
:104A1000D3F8B400C2F30B25D3F8B83020F07F40B0
:104A2000ACE70B460E4608460D46374A976C384AA7
:104A3000C7F3C117FA403CBB07EE100AB8EEC76ACD
:104A400007EE105A07EE902ADFED346AB8EEC77A07
:104A5000F8EEE77AA6EE267A67EE877A07EE101A66
:104A6000B8EEC77AC7EE876A07EE906AB8EEE77AC3
:104A700007EE903AF8EEE77A27EE277AC6EE877AC5
:104A8000FCEEE77A17EE902A1F4BD3F8C430C3F33D
:104A900007430133B2FBF3F24EE700241A4A1E4FDC
:104AA000526C12F4007F1B4A08BF3A46C3E700234A
:104AB0001E4618461D461946F0E70024184ABAE774
:104AC00000231E4618461D461946F7E7144A33E7E9
:104AD000B4F1405F7FF464AF0024124AABE7B1F158
:104AE000005FEDD006D800299BD0B1F1805FDED009
:104AF0000022C9E7B1F1405FFAD100231E461846F3
:104B00001D461946E9E700BF00800256643F0034A5
:104B10000090D0030024F40000093D000000803321
:104B2000006CDC020080BB006DED81CF00B5FFF7AB
:104B3000F3FE054B5DF804EB18689FEC100A9FE844
:104B40000E90FDEC81CF7447643F003410B5032014
:104B500000F09AF8FFF7E0FE0F20FFF7D9FA0446BD
:104B600018B9FFF74BF9204610BD0124FBE738B513
:104B700004680546606810F009003FD1A860012074
:104B800028711220013BE060C4F804211A44C4F8E3
:104B90000821D4F8003123F006031943049BC4F81C
:104BA0000011012BA3680AD143F01003A360D4F8CD
:104BB000003143F00103C4F8003100201DE023F070
:104BC0001003A360D4F8003143F00103C4F80031AE
:104BD000FFF7A0FA04462B685B68DB06EDD4FFF70D
:104BE00099FA001BC828F6D92B685B68DA06F2D45C
:104BF0001023AB60062301202B7138BD0220FCE797
:104C000038B50446E8B103685B68D90707D40020CB
:104C10002268A060136843F00103136038BDFFF7FA
:104C200079FA054623685B68DB07F0D5FFF772FA6F
:104C3000401B0128F6D923685B68DA07F2D41023F9
:104C4000A3600120EAE710B5044660B103790BB90F
:104C5000FFF744FA0023A360012323712046BDE837
:104C60001040FFF7CDBF012010BD134607B540B17E
:104C7000002200920A460621FFF779FF03B05DF893
:104C800004FB0120FAE7000007490302CA6803F4A5
:104C9000E06322F4E0621204120C134343F0BF639A
:104CA00043F40033CB60704700ED00E070B5184C62
:104CB000E368C3F30223C3F10705042D03F10406DF
:104CC00028BF0425062E4FF0FF36A3F1030398BF3B
:104CD000002306FA05F521EA05019E40002801FAA5
:104CE00003F122EA0602B8BF00F00F0041EA020316
:104CF000A8BF00F160404FEA0313B8BF0438DBB22D
:104D0000ABBF00F56140241880F80033237670BDF6
:104D100000ED00E0002807DB01234109034A00F011
:104D20001F00834042F82130704700BF00E100E0DF
:104D3000F8B51446036871BBD3F8042422F4C012FA
:104D400042EAC442C3F80424234B022C1A6838D028
:104D5000032C39D0012C3AD142F040021A60FFF7FF
:104D6000D9F94FF4003607461B4DA640FFF7D2F99C
:104D7000C01BB0F57A7F2DD8D5F8903036EA030302
:104D8000F4D14FF488530020D5F88020A34013437A
:104D9000C5F88030F8BD0129D3F8042806D122F4E3
:104DA000C01242EAC442C3F80428CDE7520341BF0F
:104DB000D3F8042C22F4C01242EAC442C3F8042CF3
:104DC000C2E742F48062C9E742F48042C6E742F09B
:104DD0000402C3E70120DDE700600058012930B577
:104DE0004FF00205046810D18571D4F800190B4307
:104DF000C4F80039C4F8C429D4F8F03343F40603E6
:104E000043F02003C4F8F03330BD08444571D4F8B2
:104E1000001D0B43C4F8003DC4F8C42DD4F8F03392
:104E200043F00643ECE770B415461E4699B90223D9
:104E300001684371D1F800253243C1F80025C1F85B
:104E4000C455D1F8F03370BC43F4064343F020035B
:104E5000C1F8F033704770BCFFF7C0BF0223837105
:104E60000368D3F8042842F00042C3F80428D3F8BA
:104E7000002942F00802C3F80029704769B90368A5
:104E8000D3F8042442F00042C3F80424D3F80025E8
:104E900042F00802C3F800257047012901D1FFF74D
:104EA000DDBF0368D3F8042C42F00042C3F8042CA1
:104EB000D3F8002D42F00802C3F8002D704700001F
:104EC000184B10B55A69C9B242F480325A611A6956
:104ED00042F001021A615A6942F480325A6100229A
:104EE0001A615A615C695C611C6944F001041C61CF
:104EF0001A615C6944F480345C611C6944F001040B
:104F00001C615C69044344F480345C611A615A6139
:104F1000586901435961196941F0010119611A6128
:104F200010BD00BF0070005810B5044668B1037989
:104F30000BB90AF073F90323002023710123607178
:104F4000A071E071A060237110BD0120FCE700009A
:104F50002DE9F0410446FEB00D464FF4FC72684660
:104F60003F4912F08AFC1CB901207EB0BDE8F081F7
:104F7000002DF9D03B4B1A6822F001021A606968D3
:104F800001291AD12A6842F404121A671A6842F0F9
:104F900001021A60D3F8802042F0B04242F40412B9
:104FA000C3F880202A68B2F5807FD3F8842054D1DA
:104FB000012908D142F01F0207E00229D4D12A6852
:104FC00042F49012E1E742F4F8520026264CC3F86E
:104FD00084202368234F23F0020323607E6023692B
:104FE000012043F001032361FFF796F82661D5F80D
:104FF0000880A3685DF8382023F4FE4343EA0223C7
:1050000043F02803A360382108201602FFF758FF59
:105010001121E420FFF754FF0DEBC803D3F80480FF
:10502000E3204FEA182146F48036FFF749FF46F0A7
:105030002806E3205FFA88F1FFF742FFA6602B689D
:105040000020B3F5807F0CBF07230F237B6023680C
:1050500043F002032360606087E742F4F852A9E757
:105060004CB11170006000580070005830B558B154
:1050700052B103791468013B012B3ED824F48033EC
:10508000B3F5003F02D1F9B1012039E0022914BF84
:10509000234600235568B4F5803F43EA05030568BD
:1050A00002D0B4F5003F04D102292AD0926843EA25
:1050B000022369B1012924D1D5F80418154A0A4000
:1050C0001A43C5F804280BE0B4F5403F2346E1D16C
:1050D0000168104AD1F8044422401A43C1F804245C
:1050E0000368D3F8042122F48042C3F80421D3F8E2
:1050F000042242F00102C3F80422022303710020BB
:1051000030BDD5F8042C22F03F021343C5F8043C0F
:10511000E6E700BFC0C0FCFFF0B1032908D8DFE814
:1051200001F002090F150D4B120242F001021A6143
:1051300000207047094B120242F001021A62F7E7A1
:10514000064B120242F001021A63F1E7034B12020E
:1051500042F001021A64EBE701207047006000583A
:105160000346F0B5002861D0002A5FD0022902D1A1
:10517000906806285AD85C1860791D79C0B2022D53
:10518000EEB253D110F0FB0050D166711B68176866
:1051900049B9D3F8002522F003023A43C3F80025A9
:1051A00001236371F0BD0129D2E9015626D1D3F85C
:1051B00000291F4922F003023A43C3F80029D3F81B
:1051C000C02922F00F023243C3F8C029D3F8CC29FA
:1051D0000A402A43C3F8CC29F21F012A06D8D3F883
:1051E000DC290A402A43C3F8DC29D9E7092ED7D1A4
:1051F000D3F8DC290A4042EA5502F4E7D3F8002D3F
:1052000022F003023A43C3F8002DD3F8C02D22F058
:105210000F023243C3F8C02DD3F8CC2D22F4FF4245
:1052200022F07F022A43C3F8CC2DB9E70120B9E769
:105230000080FFFFF8B50E461F46044610B9012551
:105240002846F8BD1D07FAD103684518D3F8043283
:105250006D79012DF3D1DB07F1D5FFF769FD054627
:105260000028ECD1314620463A46069BFFF7DBFD8D
:1052700031462046FFF702FEE2E77047704770476D
:105280007047036870B5D3F8F86304467204D3F826
:10529000F05312D5690410D5D3F8F023002122F47D
:1052A0008042C3F8F023826842F0040282604FF427
:1052B0008042C3F8FC23FFF7E1FF72050AD56B05B6
:1052C00008D54FF48062236800212046C3F8FC23F0
:1052D00009F084FFB00516D5A90514D52368D3F8C5
:1052E0000025520707D5D3F8F02322F40642C3F86D
:1052F000F023012262714FF4007200212046C3F8AE
:10530000FC2309F07BFFF3050AD5E80508D54FF427
:105310008072236800212046C3F8FC23FFF7ADFF0D
:10532000310416D52A0414D523680021D3F8F023BC
:10533000204622F40042C3F8F023A26842F008029B
:10534000A2604FF40042C3F8FC2304236371FFF70B
:1053500096FFF3030AD5E80308D54FF4803223689B
:1053600001212046C3F8FC23FFF787FF71030AD50C
:105370006A0308D54FF48022236801212046C3F830
:10538000FC2309F02BFFB30316D5A80314D523681B
:10539000D3F80029510707D5D3F8F02322F40602E9
:1053A000C3F8F0230122A2714FF4003201212046FC
:1053B000C3F8FC2309F022FF320216D52B0214D5C4
:1053C00023680121D3F8F023204622F40002C3F819
:1053D000F023A26842F01002A2604FF40002C3F86A
:1053E000FC230423A371FFF74AFFF0010AD5E9016A
:1053F00008D54FF08072236802212046C3F8FC23B1
:10540000FFF73BFF72010AD56B0108D54FF08062B0
:10541000236802212046C3F8FC2309F0DFFEB00117
:1054200016D5A90114D52368D3F8002D520707D546
:10543000D3F8F02322F00642C3F8F0230122E271F0
:105440004FF0007202212046C3F8FC2309F0D6FE7B
:10545000002E16DA002D14DA23680221D3F8F02387
:10546000204622F00042C3F8F023A26842F0200256
:10547000A2604FF00042C3F8FC230423E371FFF75E
:10548000FEFE700614D5690612D523682046D3F8AF
:10549000F02322F04002C3F8F023A26842F0020297
:1054A000A2604022C3F8FC2304232371FFF7E8FE27
:1054B000B20614D5AB0612D523682046D3F8F023E4
:1054C00022F02002C3F8F023A26842F00102A26099
:1054D0002022C3F8FC2304232371FFF7D1FE70BD03
:1054E00070477047704770477047704770470000BB
:1054F000B54B2DE9F041D3F890600446B202D3F8E1
:105500009480D3F88050D3F884700DD5A9020BD5C0
:10551000D3F8802022F40012C3F880204FF4001248
:10552000C3F80021FFF7DDFF320715D52B0713D590
:1055300023680321D3F80035204613F0040FA24B53
:105540001EBFD3F8802022F00802C3F88020082272
:10555000C3F80021FFF7CAFF700715D5690713D5F7
:1055600023680221D3F80035204613F0040F964B30
:105570001EBFD3F8802022F00402C3F8802004224A
:10558000C3F80021FFF7B2FFB20715D5AB0713D55B
:1055900023680121D3F80035204613F0040F8A4B0D
:1055A0001EBFD3F8802022F00202C3F8802002221E
:1055B000C3F80021FFF79AFFF00715D5E90713D5C7
:1055C00023680021D3F80035204613F0040F7E4BEA
:1055D0001EBFD3F8802022F00102C3F880200122F0
:1055E000C3F80021FFF782FF320416D52B0414D52F
:1055F00023680321D3F80035204613F0040F724BC3
:105600001EBFD3F8802022F40042C3F880204FF45C
:105610000042C3F80021FFF766FF700416D5690445
:1056200014D523680221D3F80035204613F0040F67
:10563000654B1EBFD3F8802022F48042C3F880203F
:105640004FF48042C3F80021FFF74DFFB20416D596
:10565000AB0414D523680121D3F80035204613F09C
:10566000040F594B1EBFD3F8802022F40052C3F818
:1056700080204FF40052C3F80021FFF734FFF004FC
:1056800016D5E90414D523680021D3F80035204647
:1056900013F0040F4C4B1EBFD3F8802022F480522D
:1056A000C3F880204FF48052C3F80021FFF71BFF9E
:1056B000320516D52B0514D523680321D3F8003500
:1056C000204613F0040F404B1EBFD3F8802022F475
:1056D0000062C3F880204FF40062C3F80021FFF796
:1056E00003FF700516D5690514D523680221D3F888
:1056F0000035204613F0040F334B1EBFD3F8802033
:1057000022F48062C3F880204FF48062C3F8002145
:10571000FFF7EAFEB20516D5AB0514D523680121C3
:10572000D3F80035204613F0040F274B1EBFD3F8E3
:10573000802022F40072C3F880204FF40072C3F876
:105740000021FFF7D1FEF00516D5E90514D5236831
:105750000021D3F80035204613F0040F1A4B1EBF6A
:10576000D3F8802022F48072C3F880204FF4807236
:10577000C3F80021FFF7B8FE320615D52B0613D566
:1057800023680321D3F80035204613F0040F0E4B95
:105790001EBFD3F8802022F08002C3F88020802230
:1057A000C3F80021FFF7A1FE700619D5690617D5C9
:1057B00023680221D3F80035204613F0040F024B72
:1057C00018BFD3F8802001E0006000581CBF22F011
:1057D0004002C3F880204022C3F80021FFF785FE75
:1057E000B20615D5AB0613D523680121D3F80035D1
:1057F000204613F0040FB94B1EBFD3F8802022F0CF
:105800002002C3F880202022C3F80021FFF76DFE9C
:10581000F00615D5E90613D523680021D3F8003525
:10582000204613F0040FAD4B1EBFD3F8802022F0AA
:105830001002C3F880201022C3F80021FFF755FEA4
:10584000720013D56B0011D5A44B2046D3F88020ED
:1058500022F08042C3F880204FF08042C3F800213C
:10586000A36843F48073A360FFF70AFDB00013D56B
:10587000A90011D5994B2046D3F8802022F0005280
:10588000C3F880204FF00052C3F80021A36843F40E
:105890000073A360FFF7F4FCF20013D5EB0011D501
:1058A0008E4B2046D3F8802022F08052C3F880200F
:1058B0004FF08052C3F80021A36843F48063A360D3
:1058C000FFF7DEFC300113D5290111D5834B2046AB
:1058D000D3F8802022F00062C3F880204FF00062ED
:1058E000C3F80021A36843F40063A360FFF7C8FC7A
:1058F000720113D56B0111D5784B2046D3F8802067
:1059000022F08062C3F880204FF08062C3F800214B
:10591000A36843F48053A360FFF7B2FCB00113D532
:10592000A90111D56D4B2046D3F8802022F00072DA
:10593000C3F880204FF00072C3F80021A36843F43D
:105940000053A360FFF79CFCF20113D5EB0111D5C6
:10595000624B2046D3F8802022F08072C3F880206A
:105960004FF08072C3F80021A36843F48043A36022
:10597000FFF786FC18F0010F14D0F80712D50121AB
:10598000564B2046D3F8802022F00102C3F8802035
:10599000C3F80411A36843F40023A3600423237114
:1059A000FFF79EFD18F0020F15D0B90713D54B4B2A
:1059B0000121D3F88020204622F00202C3F8802083
:1059C0000222C3F80421A36843F48023A3600423C4
:1059D0002371FFF785FD18F0040F13D07A0711D556
:1059E0003E4B0121D3F88020204622F00402C3F868
:1059F00080200422C3F80421A36843F40033A36089
:105A0000FFF76EFD18F0080F13D03B0711D5334B8D
:105A10000121D3F88020204622F00802C3F880201C
:105A20000822C3F80421A36843F48033A360FFF77E
:105A300057FD18F0100F13D0F80611D5274B012190
:105A4000D3F88020204622F01002C3F880201022D4
:105A5000C3F80421A36843F40043A360FFF740FDAB
:105A600018F4807F16D0F90514D51C4B0221D3F809
:105A70008020204622F48072C3F880204FF4807288
:105A8000C3F80421A36843F40023A3600423237113
:105A9000FFF726FD18F4007F16D0BA0514D50F4B7A
:105AA0000221D3F88020204622F40072C3F880201F
:105AB0004FF40072C3F80421A36843F48023A36069
:105AC00004232371FFF70CFD18F4806F17D07B05BA
:105AD00015D5024B0221D3F8802001E00060005868
:105AE000204622F48062C3F880204FF48062C3F81D
:105AF0000421A36843F40033A360FFF7F1FC18F41A
:105B0000006F14D0380512D51F4B0221D3F8802026
:105B1000204622F40062C3F880204FF40062C3F8EC
:105B20000421A36843F48033A360FFF7D9FC18F481
:105B3000805F14D0F90412D5134B0221D3F88020D2
:105B4000204622F48052C3F880204FF48052C3F8DC
:105B50000421A36843F40043A360FFF7C1FCF203F0
:105B60000FD5EB030DD5084B2046D3F8802022F447
:105B70008032C3F880204FF48032C3F80021FFF751
:105B8000B1FCBDE8F08100BF0060005810B50028EE
:105B90005BD0002A59D00379022B56D109BB01688A
:105BA0002B4BD1F804010340B3F5804F4DD0D2E91F
:105BB0000043D1F8040543EA044300F0F020034316
:105BC000C1F80435D2E9033492682343D1F80805BB
:105BD00043EA02431F4A02401343C1F8083500203C
:105BE00010BD012917D1D2E90043016843EA0443FB
:105BF000D1F8040900F0F0200343C1F80439D1F8CA
:105C00000809D2E9024300F0F02243EA04431343B7
:105C1000C1F80839E3E7022917D1D2E90043016846
:105C200043EA0443D1F8040D00F0F0200343C1F827
:105C3000043DD1F8080DD2E9024300F0F02243EA16
:105C400004431343C1F8083DC9E70120C8E700BF7A
:105C50000040FF0000F000B068B30379022B2AD1A6
:105C600079B90368154AD3F804110A40B2F5804F98
:105C700021D0D3F8082542F00042C3F808250020BF
:105C8000704701290DD103680846D3F82028B2F5E2
:105C9000004F11D0D3F8082942F00042C3F8082978
:105CA000EDE7022907D10268D2F8083D43F000432E
:105CB000C2F8083DE3E70120704700BF0040FF0045
:105CC000E8B141B90268D2F8083523F00043C2F8C0
:105CD000083500207047012907D10268D2F8083939
:105CE00023F00043C2F80839F3E7022907D102681C
:105CF000D2F8083D23F00043C2F8083DE9E701204F
:105D0000704790B18AB10379022B0ED101290CD1D1
:105D1000D2E9003200681343D0F8301821F01E0297
:105D20001343C0F83038002070470120704750B14D
:105D3000012908D102680020D2F8303843F001036D
:105D4000C2F83038704701207047F8B10379022B50
:105D50001CD101290CD1D2E9003200681343D0F8DC
:105D60000C1921F01E021343C0F80C3900207047B3
:105D700002290BD1D2E9003200681343D0F80C1D80
:105D800021F01E021343C0F80C3DEFE701207047DD
:105D9000A0B1012908D10268D2F80C3943F00103FF
:105DA000C2F80C3900207047022907D10268D2F8E6
:105DB0000C3D43F00103C2F80C3DF3E701207047AE
:105DC000A0B1012908D10268D2F80C3923F00103EF
:105DD000C2F80C3900207047022907D10268D2F8B6
:105DE0000C3D23F00103C2F80C3DF3E7012070479E
:105DF00010B5002845D0002A43D00379022B40D1AA
:105E000001291ED1D2E90441036841EA0441D3F8D3
:105E1000100900F0FC200143C3F81019D2E9020177
:105E200041EA0041C3F81419D3F81819D2E9000265
:105E300001F0F02142EA00420A43C3F81829002089
:105E400010BD02291DD1D2E90441036841EA044191
:105E5000D3F8100D00F0FC200143C3F8101DD2E967
:105E6000020141EA0041C3F8141DD3F8181DD2E91C
:105E7000000201F0F02142EA00420A43C3F8182D63
:105E8000DDE70120DCE7A0B1012908D10268D2F8E2
:105E9000103943F00043C2F810390020704702293E
:105EA00007D10268D2F8103D43F00043C2F8103D1C
:105EB000F3E701207047A0B1012908D10268D2F8A8
:105EC000703943F00103C2F870390020704702298D
:105ED00007D10268D2F8703D43F00103C2F8703D6B
:105EE000F3E701207047A0B1012908D10268D2F878
:105EF000703923F00103C2F870390020704702297D
:105F000007D10268D2F8703D23F00103C2F8703D5A
:105F1000F3E701207047012905D10368D3F8700920
:105F200000F001007047022903D10368D3F8700D17
:105F3000F6E700207047000010B5C8B1C2B10129D2
:105F400016D1D2E903431B0743EA0443946801686E
:105F500023431468526843EA0453D1F8700843EAB3
:105F60000263044A024000201343C1F8703810BD98
:105F70000120FCE7F9FF888850B1012908D10268A7
:105F80000020D2F8703843F00103C2F8703870472F
:105F90000120704750B1012908D102680020D2F8D1
:105FA000703823F00103C2F8703870470120704741
:105FB00078B101290DD1006843EA0233D0F82018E6
:105FC00021F4FF4222F07F021343C0F82038002062
:105FD00070470120704750B1012908D102680020A4
:105FE000D2F8203843F40043C2F82038704701202B
:105FF000704750B1012908D102680020D2F820383A
:1060000023F40043C2F8203870470120704760B184
:1060100001290AD101680020D1F8243823F00E03A9
:1060200043EA4202C1F8242870470120704750B16A
:10603000012908D102680020D2F8243843F0010376
:10604000C2F8243870470120704750B1012908D1A7
:1060500002680020D2F8243823F00103C2F8243863
:106060007047012070470368D3F82408C0F342004A
:106070007047012903BF0368D3F8240800F001002A
:106080000020704758B152B10379022B07D1036841
:106090000020D3F82838C3F30B03136070470120A6
:1060A0007047000070B5002800F0A880002A00F0BA
:1060B000A580012940F0A28003681478D3F88008F5
